{
  "_format": "hh-sol-artifact-1",
  "contractName": "Lottery",
  "sourceName": "contracts/Lottery.sol",
  "abi": [
    {
      "inputs": [
        {
          "internalType": "address",
          "name": "vrfCoordinatorV2",
          "type": "address"
        },
        {
          "internalType": "uint256",
          "name": "entranceFee",
          "type": "uint256"
        },
        {
          "internalType": "bytes32",
          "name": "gasLane",
          "type": "bytes32"
        },
        {
          "internalType": "uint64",
          "name": "subscriptionId",
          "type": "uint64"
        },
        {
          "internalType": "uint32",
          "name": "callbackGasLimit",
          "type": "uint32"
        },
        {
          "internalType": "uint256",
          "name": "interval",
          "type": "uint256"
        }
      ],
      "stateMutability": "nonpayable",
      "type": "constructor"
    },
    {
      "inputs": [],
      "name": "Lottery__NotEnoughEthEntered",
      "type": "error"
    },
    {
      "inputs": [],
      "name": "Lottery__NotOpen",
      "type": "error"
    },
    {
      "inputs": [],
      "name": "Lottery__TransferFailed",
      "type": "error"
    },
    {
      "inputs": [
        {
          "internalType": "uint256",
          "name": "currentBalance",
          "type": "uint256"
        },
        {
          "internalType": "uint256",
          "name": "numPlayers",
          "type": "uint256"
        },
        {
          "internalType": "uint256",
          "name": "lotteryState",
          "type": "uint256"
        }
      ],
      "name": "Lottery__UpkeepNotNeeded",
      "type": "error"
    },
    {
      "inputs": [
        {
          "internalType": "address",
          "name": "have",
          "type": "address"
        },
        {
          "internalType": "address",
          "name": "want",
          "type": "address"
        }
      ],
      "name": "OnlyCoordinatorCanFulfill",
      "type": "error"
    },
    {
      "anonymous": false,
      "inputs": [
        {
          "indexed": true,
          "internalType": "address",
          "name": "player",
          "type": "address"
        }
      ],
      "name": "EnteredLottery",
      "type": "event"
    },
    {
      "anonymous": false,
      "inputs": [
        {
          "indexed": true,
          "internalType": "uint256",
          "name": "requestId",
          "type": "uint256"
        }
      ],
      "name": "RequestedLotteryWinner",
      "type": "event"
    },
    {
      "anonymous": false,
      "inputs": [
        {
          "indexed": true,
          "internalType": "address",
          "name": "winner",
          "type": "address"
        }
      ],
      "name": "WinnerPicked",
      "type": "event"
    },
    {
      "inputs": [
        {
          "internalType": "bytes",
          "name": "",
          "type": "bytes"
        }
      ],
      "name": "checkUpkeep",
      "outputs": [
        {
          "internalType": "bool",
          "name": "upkeepNeeded",
          "type": "bool"
        },
        {
          "internalType": "bytes",
          "name": "",
          "type": "bytes"
        }
      ],
      "stateMutability": "nonpayable",
      "type": "function"
    },
    {
      "inputs": [],
      "name": "enterLottery",
      "outputs": [],
      "stateMutability": "payable",
      "type": "function"
    },
    {
      "inputs": [],
      "name": "getEntranceFee",
      "outputs": [
        {
          "internalType": "uint256",
          "name": "",
          "type": "uint256"
        }
      ],
      "stateMutability": "view",
      "type": "function"
    },
    {
      "inputs": [],
      "name": "getLotteryState",
      "outputs": [
        {
          "internalType": "enum Lottery.LotteryState",
          "name": "",
          "type": "uint8"
        }
      ],
      "stateMutability": "view",
      "type": "function"
    },
    {
      "inputs": [],
      "name": "getNumWords",
      "outputs": [
        {
          "internalType": "uint256",
          "name": "",
          "type": "uint256"
        }
      ],
      "stateMutability": "pure",
      "type": "function"
    },
    {
      "inputs": [],
      "name": "getNumberOfPlayers",
      "outputs": [
        {
          "internalType": "uint256",
          "name": "",
          "type": "uint256"
        }
      ],
      "stateMutability": "view",
      "type": "function"
    },
    {
      "inputs": [
        {
          "internalType": "uint256",
          "name": "index",
          "type": "uint256"
        }
      ],
      "name": "getPlayer",
      "outputs": [
        {
          "internalType": "address",
          "name": "",
          "type": "address"
        }
      ],
      "stateMutability": "view",
      "type": "function"
    },
    {
      "inputs": [],
      "name": "getRecentWinner",
      "outputs": [
        {
          "internalType": "address",
          "name": "",
          "type": "address"
        }
      ],
      "stateMutability": "view",
      "type": "function"
    },
    {
      "inputs": [],
      "name": "getRequestConfirmations",
      "outputs": [
        {
          "internalType": "uint256",
          "name": "",
          "type": "uint256"
        }
      ],
      "stateMutability": "pure",
      "type": "function"
    },
    {
      "inputs": [
        {
          "internalType": "bytes",
          "name": "",
          "type": "bytes"
        }
      ],
      "name": "performUpkeep",
      "outputs": [],
      "stateMutability": "nonpayable",
      "type": "function"
    },
    {
      "inputs": [
        {
          "internalType": "uint256",
          "name": "requestId",
          "type": "uint256"
        },
        {
          "internalType": "uint256[]",
          "name": "randomWords",
          "type": "uint256[]"
        }
      ],
      "name": "rawFulfillRandomWords",
      "outputs": [],
      "stateMutability": "nonpayable",
      "type": "function"
    }
  ],
  "bytecode": "0x6101606040523480156200001257600080fd5b50604051620016d3380380620016d38339818101604052810190620000389190620001ad565b858073ffffffffffffffffffffffffffffffffffffffff1660808173ffffffffffffffffffffffffffffffffffffffff1660601b81525050508460a081815250508573ffffffffffffffffffffffffffffffffffffffff1660c08173ffffffffffffffffffffffffffffffffffffffff1660601b815250508360e081815250508267ffffffffffffffff166101008167ffffffffffffffff1660c01b815250508163ffffffff166101208163ffffffff1660e01b815250506000600160146101000a81548160ff02191690836001811115620001195762000118620002b5565b5b0217905550426002819055508061014081815250505050505050506200036b565b6000815190506200014b81620002e9565b92915050565b600081519050620001628162000303565b92915050565b60008151905062000179816200031d565b92915050565b600081519050620001908162000337565b92915050565b600081519050620001a78162000351565b92915050565b60008060008060008060c08789031215620001cd57620001cc620002e4565b5b6000620001dd89828a016200013a565b9650506020620001f089828a0162000168565b95505060406200020389828a0162000151565b94505060606200021689828a0162000196565b93505060806200022989828a016200017f565b92505060a06200023c89828a0162000168565b9150509295509295509295565b6000620002568262000267565b9050919050565b6000819050919050565b600073ffffffffffffffffffffffffffffffffffffffff82169050919050565b6000819050919050565b600063ffffffff82169050919050565b600067ffffffffffffffff82169050919050565b7f4e487b7100000000000000000000000000000000000000000000000000000000600052602160045260246000fd5b600080fd5b620002f48162000249565b81146200030057600080fd5b50565b6200030e816200025d565b81146200031a57600080fd5b50565b620003288162000287565b81146200033457600080fd5b50565b620003428162000291565b81146200034e57600080fd5b50565b6200035c81620002a1565b81146200036857600080fd5b50565b60805160601c60a05160c05160601c60e0516101005160c01c6101205160e01c610140516112f3620003e060003960006105ff0152600061049901526000610476015260006104550152600061041901526000818161027e015261066b0152600081816102a401526102f801526112f36000f3fe60806040526004361061009c5760003560e01c80635f1b0fd8116100645780635f1b0fd8146101745780636b68c03c1461019f5780636e04ff0d146101ca578063c1af578514610208578063e55ae4e814610212578063fd6673f51461024f5761009c565b806309bc33a7146100a15780631fe543e3146100cc5780634585e33b146100f5578063473f1ddc1461011e57806353a2c19a14610149575b600080fd5b3480156100ad57600080fd5b506100b661027a565b6040516100c39190610efe565b60405180910390f35b3480156100d857600080fd5b506100f360048036038101906100ee9190610cd7565b6102a2565b005b34801561010157600080fd5b5061011c60048036038101906101179190610c34565b610362565b005b34801561012a57600080fd5b50610133610560565b6040516101409190610e1c565b60405180910390f35b34801561015557600080fd5b5061015e61058a565b60405161016b9190610efe565b60405180910390f35b34801561018057600080fd5b50610189610599565b6040516101969190610efe565b60405180910390f35b3480156101ab57600080fd5b506101b46105a6565b6040516101c19190610ee3565b60405180910390f35b3480156101d657600080fd5b506101f160048036038101906101ec9190610c34565b6105bd565b6040516101ff929190610e60565b60405180910390f35b610210610669565b005b34801561021e57600080fd5b5061023960048036038101906102349190610c7d565b6107d8565b6040516102469190610e1c565b60405180910390f35b34801561025b57600080fd5b5061026461081f565b6040516102719190610efe565b60405180910390f35b60007f0000000000000000000000000000000000000000000000000000000000000000905090565b7f000000000000000000000000000000000000000000000000000000000000000073ffffffffffffffffffffffffffffffffffffffff163373ffffffffffffffffffffffffffffffffffffffff161461035457337f00000000000000000000000000000000000000000000000000000000000000006040517f1cf993f400000000000000000000000000000000000000000000000000000000815260040161034b929190610e37565b60405180910390fd5b61035e828261082b565b5050565b600061037c604051806020016040528060008152506105bd565b509050806103eb5747600080549050600160149054906101000a900460ff1660018111156103ad576103ac6111d8565b5b6040517f6e195f250000000000000000000000000000000000000000000000000000000081526004016103e293929190610f19565b60405180910390fd5b60018060146101000a81548160ff021916908360018111156104105761040f6111d8565b5b021790555060007f000000000000000000000000000000000000000000000000000000000000000073ffffffffffffffffffffffffffffffffffffffff16635d3b1d307f00000000000000000000000000000000000000000000000000000000000000007f000000000000000000000000000000000000000000000000000000000000000060037f000000000000000000000000000000000000000000000000000000000000000060016040518663ffffffff1660e01b81526004016104da959493929190610e90565b602060405180830381600087803b1580156104f457600080fd5b505af1158015610508573d6000803e3d6000fd5b505050506040513d601f19601f8201168201806040525081019061052c9190610caa565b9050807febf56642252004c18a776f30d528e7a0ce8c5db14b6596fb6550f630c8a24c6c60405160405180910390a2505050565b6000600160009054906101000a900473ffffffffffffffffffffffffffffffffffffffff16905090565b6000600163ffffffff16905090565b6000600361ffff16905090565b6000600160149054906101000a900460ff16905090565b6000606060008060018111156105d6576105d56111d8565b5b600160149054906101000a900460ff1660018111156105f8576105f76111d8565b5b14905060007f00000000000000000000000000000000000000000000000000000000000000006002544261062c9190610ff9565b1190506000806000805490501190506000804711905083801561064c5750825b80156106555750815b801561065e5750805b955050505050915091565b7f00000000000000000000000000000000000000000000000000000000000000003410156106c3576040517f3e8f808800000000000000000000000000000000000000000000000000000000815260040160405180910390fd5b600060018111156106d7576106d66111d8565b5b600160149054906101000a900460ff1660018111156106f9576106f86111d8565b5b14610730576040517fe76be6fc00000000000000000000000000000000000000000000000000000000815260040160405180910390fd5b6000339080600181540180825580915050600190039060005260206000200160009091909190916101000a81548173ffffffffffffffffffffffffffffffffffffffff021916908373ffffffffffffffffffffffffffffffffffffffff1602179055503373ffffffffffffffffffffffffffffffffffffffff167fc8001bd3c1806afa3fbde07a543ea4392bd51d3b466cd2427d82baabd430f2a960405160405180910390a2565b60008082815481106107ed576107ec611207565b5b9060005260206000200160009054906101000a900473ffffffffffffffffffffffffffffffffffffffff169050919050565b60008080549050905090565b600080805490508260008151811061084657610845611207565b5b60200260200101516108589190611149565b9050600080828154811061086f5761086e611207565b5b9060005260206000200160009054906101000a900473ffffffffffffffffffffffffffffffffffffffff16905080600160006101000a81548173ffffffffffffffffffffffffffffffffffffffff021916908373ffffffffffffffffffffffffffffffffffffffff1602179055506000600160146101000a81548160ff02191690836001811115610903576109026111d8565b5b0217905550600067ffffffffffffffff81111561092357610922611236565b5b6040519080825280602002602001820160405280156109515781602001602082028036833780820191505090505b5060009080519060200190610967929190610a55565b5060008173ffffffffffffffffffffffffffffffffffffffff164760405161098e90610e07565b60006040518083038185875af1925050503d80600081146109cb576040519150601f19603f3d011682016040523d82523d6000602084013e6109d0565b606091505b5050905080610a0b576040517f1c94012000000000000000000000000000000000000000000000000000000000815260040160405180910390fd5b8173ffffffffffffffffffffffffffffffffffffffff167f5b690ec4a06fe979403046eaeea5b3ce38524683c3001f662c8b5a829632f7df60405160405180910390a25050505050565b828054828255906000526020600020908101928215610ace579160200282015b82811115610acd5782518260006101000a81548173ffffffffffffffffffffffffffffffffffffffff021916908373ffffffffffffffffffffffffffffffffffffffff16021790555091602001919060010190610a75565b5b509050610adb9190610adf565b5090565b5b80821115610af8576000816000905550600101610ae0565b5090565b6000610b0f610b0a84610f75565b610f50565b90508083825260208201905082856020860282011115610b3257610b3161126a565b5b60005b85811015610b625781610b488882610c0a565b845260208401935060208301925050600181019050610b35565b5050509392505050565b6000610b7f610b7a84610fa1565b610f50565b905082815260208101848484011115610b9b57610b9a61126f565b5b610ba68482856110d6565b509392505050565b600082601f830112610bc357610bc2611265565b5b8135610bd3848260208601610afc565b91505092915050565b600082601f830112610bf157610bf0611265565b5b8135610c01848260208601610b6c565b91505092915050565b600081359050610c19816112a6565b92915050565b600081519050610c2e816112a6565b92915050565b600060208284031215610c4a57610c49611279565b5b600082013567ffffffffffffffff811115610c6857610c67611274565b5b610c7484828501610bdc565b91505092915050565b600060208284031215610c9357610c92611279565b5b6000610ca184828501610c0a565b91505092915050565b600060208284031215610cc057610cbf611279565b5b6000610cce84828501610c1f565b91505092915050565b60008060408385031215610cee57610ced611279565b5b6000610cfc85828601610c0a565b925050602083013567ffffffffffffffff811115610d1d57610d1c611274565b5b610d2985828601610bae565b9150509250929050565b610d3c8161102d565b82525050565b610d4b8161103f565b82525050565b610d5a8161104b565b82525050565b6000610d6b82610fd2565b610d758185610fdd565b9350610d858185602086016110e5565b610d8e8161127e565b840191505092915050565b610da2816110c4565b82525050565b6000610db5600083610fee565b9150610dc08261128f565b600082019050919050565b610dd481611068565b82525050565b610de381611096565b82525050565b610df2816110a0565b82525050565b610e01816110b0565b82525050565b6000610e1282610da8565b9150819050919050565b6000602082019050610e316000830184610d33565b92915050565b6000604082019050610e4c6000830185610d33565b610e596020830184610d33565b9392505050565b6000604082019050610e756000830185610d42565b8181036020830152610e878184610d60565b90509392505050565b600060a082019050610ea56000830188610d51565b610eb26020830187610df8565b610ebf6040830186610dcb565b610ecc6060830185610de9565b610ed96080830184610de9565b9695505050505050565b6000602082019050610ef86000830184610d99565b92915050565b6000602082019050610f136000830184610dda565b92915050565b6000606082019050610f2e6000830186610dda565b610f3b6020830185610dda565b610f486040830184610dda565b949350505050565b6000610f5a610f6b565b9050610f668282611118565b919050565b6000604051905090565b600067ffffffffffffffff821115610f9057610f8f611236565b5b602082029050602081019050919050565b600067ffffffffffffffff821115610fbc57610fbb611236565b5b610fc58261127e565b9050602081019050919050565b600081519050919050565b600082825260208201905092915050565b600081905092915050565b600061100482611096565b915061100f83611096565b9250828210156110225761102161117a565b5b828203905092915050565b600061103882611076565b9050919050565b60008115159050919050565b6000819050919050565b600081905061106382611292565b919050565b600061ffff82169050919050565b600073ffffffffffffffffffffffffffffffffffffffff82169050919050565b6000819050919050565b600063ffffffff82169050919050565b600067ffffffffffffffff82169050919050565b60006110cf82611055565b9050919050565b82818337600083830152505050565b60005b838110156111035780820151818401526020810190506110e8565b83811115611112576000848401525b50505050565b6111218261127e565b810181811067ffffffffffffffff821117156111405761113f611236565b5b80604052505050565b600061115482611096565b915061115f83611096565b92508261116f5761116e6111a9565b5b828206905092915050565b7f4e487b7100000000000000000000000000000000000000000000000000000000600052601160045260246000fd5b7f4e487b7100000000000000000000000000000000000000000000000000000000600052601260045260246000fd5b7f4e487b7100000000000000000000000000000000000000000000000000000000600052602160045260246000fd5b7f4e487b7100000000000000000000000000000000000000000000000000000000600052603260045260246000fd5b7f4e487b7100000000000000000000000000000000000000000000000000000000600052604160045260246000fd5b600080fd5b600080fd5b600080fd5b600080fd5b600080fd5b6000601f19601f8301169050919050565b50565b600281106112a3576112a26111d8565b5b50565b6112af81611096565b81146112ba57600080fd5b5056fea26469706673582212206f7d6612e7aaccbbc1eafb70c1bfa91e62fd3843ed785fedd0c957a630d69d1164736f6c63430008070033",
  "linkReferences": {},
  "deployedLinkReferences": {}
}